{
  "transactions": [
    {
      "hash": "0xa245d90c3da99bd885fc5baf26736caab97f3ba2a6bb1d0d72aebf2fb6810dfe",
      "transactionType": "CREATE",
      "contractName": "MockMoxie",
      "contractAddress": "0xf2ea7036d24bf9fdd073870ea757667270072d4f",
      "function": null,
      "arguments": [
        "\"TestMoxie\"",
        "\"TMOXIE\""
      ],
      "transaction": {
        "from": "0x3d4bdd0daa396fa0b8b488fa7faf9050cb944239",
        "gas": "0xa71b6",
        "value": "0x0",
        "input": "0x60806040523480156200001157600080fd5b5060405162000a7c38038062000a7c833981016040819052620000349162000123565b818160036200004483826200021c565b5060046200005382826200021c565b5050505050620002e8565b634e487b7160e01b600052604160045260246000fd5b600082601f8301126200008657600080fd5b81516001600160401b0380821115620000a357620000a36200005e565b604051601f8301601f19908116603f01168101908282118183101715620000ce57620000ce6200005e565b81604052838152602092508683858801011115620000eb57600080fd5b600091505b838210156200010f5785820183015181830184015290820190620000f0565b600093810190920192909252949350505050565b600080604083850312156200013757600080fd5b82516001600160401b03808211156200014f57600080fd5b6200015d8683870162000074565b935060208501519150808211156200017457600080fd5b50620001838582860162000074565b9150509250929050565b600181811c90821680620001a257607f821691505b602082108103620001c357634e487b7160e01b600052602260045260246000fd5b50919050565b601f8211156200021757600081815260208120601f850160051c81016020861015620001f25750805b601f850160051c820191505b818110156200021357828155600101620001fe565b5050505b505050565b81516001600160401b038111156200023857620002386200005e565b62000250816200024984546200018d565b84620001c9565b602080601f8311600181146200028857600084156200026f5750858301515b600019600386901b1c1916600185901b17855562000213565b600085815260208120601f198616915b82811015620002b95788860151825594840194600190910190840162000298565b5085821015620002d85787850151600019600388901b60f8161c191681555b5050505050600190811b01905550565b61078480620002f86000396000f3fe608060405234801561001057600080fd5b506004361061009e5760003560e01c806340c10f191161006657806340c10f191461011857806370a082311461012d57806395d89b4114610156578063a9059cbb1461015e578063dd62ed3e1461017157600080fd5b806306fdde03146100a3578063095ea7b3146100c157806318160ddd146100e457806323b872dd146100f6578063313ce56714610109575b600080fd5b6100ab6101aa565b6040516100b891906105ce565b60405180910390f35b6100d46100cf366004610638565b61023c565b60405190151581526020016100b8565b6002545b6040519081526020016100b8565b6100d4610104366004610662565b610256565b604051601281526020016100b8565b61012b610126366004610638565b61027a565b005b6100e861013b36600461069e565b6001600160a01b031660009081526020819052604090205490565b6100ab610288565b6100d461016c366004610638565b610297565b6100e861017f3660046106c0565b6001600160a01b03918216600090815260016020908152604080832093909416825291909152205490565b6060600380546101b9906106f3565b80601f01602080910402602001604051908101604052809291908181526020018280546101e5906106f3565b80156102325780601f1061020757610100808354040283529160200191610232565b820191906000526020600020905b81548152906001019060200180831161021557829003601f168201915b5050505050905090565b60003361024a8185856102a5565b60019150505b92915050565b6000336102648582856102b7565b61026f85858561033a565b506001949350505050565b6102848282610399565b5050565b6060600480546101b9906106f3565b60003361024a81858561033a565b6102b283838360016103cf565b505050565b6001600160a01b038381166000908152600160209081526040808320938616835292905220546000198114610334578181101561032557604051637dc7a0d960e11b81526001600160a01b038416600482015260248101829052604481018390526064015b60405180910390fd5b610334848484840360006103cf565b50505050565b6001600160a01b03831661036457604051634b637e8f60e11b81526000600482015260240161031c565b6001600160a01b03821661038e5760405163ec442f0560e01b81526000600482015260240161031c565b6102b28383836104a4565b6001600160a01b0382166103c35760405163ec442f0560e01b81526000600482015260240161031c565b610284600083836104a4565b6001600160a01b0384166103f95760405163e602df0560e01b81526000600482015260240161031c565b6001600160a01b03831661042357604051634a1406b160e11b81526000600482015260240161031c565b6001600160a01b038085166000908152600160209081526040808320938716835292905220829055801561033457826001600160a01b0316846001600160a01b03167f8c5be1e5ebec7d5bd14f71427d1e84f3dd0314c0f7b2291e5b200ac8c7c3b9258460405161049691815260200190565b60405180910390a350505050565b6001600160a01b0383166104cf5780600260008282546104c4919061072d565b909155506105419050565b6001600160a01b038316600090815260208190526040902054818110156105225760405163391434e360e21b81526001600160a01b0385166004820152602481018290526044810183905260640161031c565b6001600160a01b03841660009081526020819052604090209082900390555b6001600160a01b03821661055d5760028054829003905561057c565b6001600160a01b03821660009081526020819052604090208054820190555b816001600160a01b0316836001600160a01b03167fddf252ad1be2c89b69c2b068fc378daa952ba7f163c4a11628f55a4df523b3ef836040516105c191815260200190565b60405180910390a3505050565b600060208083528351808285015260005b818110156105fb578581018301518582016040015282016105df565b506000604082860101526040601f19601f8301168501019250505092915050565b80356001600160a01b038116811461063357600080fd5b919050565b6000806040838503121561064b57600080fd5b6106548361061c565b946020939093013593505050565b60008060006060848603121561067757600080fd5b6106808461061c565b925061068e6020850161061c565b9150604084013590509250925092565b6000602082840312156106b057600080fd5b6106b98261061c565b9392505050565b600080604083850312156106d357600080fd5b6106dc8361061c565b91506106ea6020840161061c565b90509250929050565b600181811c9082168061070757607f821691505b60208210810361072757634e487b7160e01b600052602260045260246000fd5b50919050565b8082018082111561025057634e487b7160e01b600052601160045260246000fdfea2646970667358221220eeba128096f759c60fc9d077196bc797923ac9e68b55b7f086f0dd7d61f22d7264736f6c63430008140033000000000000000000000000000000000000000000000000000000000000004000000000000000000000000000000000000000000000000000000000000000800000000000000000000000000000000000000000000000000000000000000009546573744d6f78696500000000000000000000000000000000000000000000000000000000000000000000000000000000000000000000000000000000000006544d4f5849450000000000000000000000000000000000000000000000000000",
        "nonce": "0xcf",
        "chainId": "0xaa36a7"
      },
      "additionalContracts": [],
      "isFixedGasLimit": false
    },
    {
      "hash": "0xfe8299355889e9d36548bb534ebeb26960342a9b495001686aa1ea977ba6b03a",
      "transactionType": "CALL",
      "contractName": "MockMoxie",
      "contractAddress": "0xf2ea7036d24bf9fdd073870ea757667270072d4f",
      "function": "mint(address,uint256)",
      "arguments": [
        "0x3D4bDd0Daa396FA0b8B488FA7faF9050cb944239",
        "1000000000000000000000000"
      ],
      "transaction": {
        "from": "0x3d4bdd0daa396fa0b8b488fa7faf9050cb944239",
        "to": "0xf2ea7036d24bf9fdd073870ea757667270072d4f",
        "gas": "0x186f3",
        "value": "0x0",
        "input": "0x40c10f190000000000000000000000003d4bdd0daa396fa0b8b488fa7faf9050cb94423900000000000000000000000000000000000000000000d3c21bcecceda1000000",
        "nonce": "0xd0",
        "chainId": "0xaa36a7"
      },
      "additionalContracts": [],
      "isFixedGasLimit": false
    },
    {
      "hash": "0xe079644054230179557cba8527e04e58830de41fc9695cdbba2ab6e0d89e5444",
      "transactionType": "CALL",
      "contractName": "MockMoxie",
      "contractAddress": "0xf2ea7036d24bf9fdd073870ea757667270072d4f",
      "function": "mint(address,uint256)",
      "arguments": [
        "0x29F0cbED796f0C6663f1ca3F0e3c51De29c78Ec8",
        "1000000000000000000000000"
      ],
      "transaction": {
        "from": "0x3d4bdd0daa396fa0b8b488fa7faf9050cb944239",
        "to": "0xf2ea7036d24bf9fdd073870ea757667270072d4f",
        "gas": "0x114f7",
        "value": "0x0",
        "input": "0x40c10f1900000000000000000000000029f0cbed796f0c6663f1ca3f0e3c51de29c78ec800000000000000000000000000000000000000000000d3c21bcecceda1000000",
        "nonce": "0xd1",
        "chainId": "0xaa36a7"
      },
      "additionalContracts": [],
      "isFixedGasLimit": false
    },
    {
      "hash": "0x322704f7cfa3d040ddc41934b2785393703524c495b355d1caf48cc734e83989",
      "transactionType": "CREATE",
      "contractName": "YoinkChing",
      "contractAddress": "0x7142b4a549df92f8e035fe51f83e64be9365d268",
      "function": null,
      "arguments": [
        "0xf2eA7036D24bF9FDd073870ea757667270072d4f"
      ],
      "transaction": {
        "from": "0x3d4bdd0daa396fa0b8b488fa7faf9050cb944239",
        "gas": "0x8c579",
        "value": "0x0",
        "input": "0x608060405234801561001057600080fd5b5060405161077f38038061077f83398101604081905261002f916100ae565b6001600160a01b0381166100895760405162461bcd60e51b815260206004820152601560248201527f696e76616c6964206d6f78696520616464726573730000000000000000000000604482015260640160405180910390fd5b600080546001600160a01b0319166001600160a01b03929092169190911790556100de565b6000602082840312156100c057600080fd5b81516001600160a01b03811681146100d757600080fd5b9392505050565b610692806100ed6000396000f3fe608060405234801561001057600080fd5b506004361061009e5760003560e01c80638b7f511f116100665780638b7f511f1461010f5780639846cd9e1461011e5780639bd3c61314610128578063e48c62ac14610132578063e5ed1d591461014357600080fd5b8063208cac4f146100a35780633258f228146100d35780634c8ab371146100e65780635fbd9228146100fd5780636c39b7ee14610106575b600080fd5b6002546100b6906001600160a01b031681565b6040516001600160a01b0390911681526020015b60405180910390f35b6000546100b6906001600160a01b031681565b6100ef60045481565b6040519081526020016100ca565b6100ef60015481565b6100ef60035481565b6100ef678ac7230489e8000081565b610126610156565b005b6100ef6201518081565b6100ef690a968163f0a57b40000081565b6101266101513660046105b9565b61034e565b6001541580159061017157506002546001600160a01b031615155b6101b55760405162461bcd60e51b815260206004820152601060248201526f19d85b59481b9bdd081cdd185c9d195960821b60448201526064015b60405180910390fd5b6101bd610492565b156102c1576002546001600160a01b03166101d66104ad565b600080546040516370a0823160e01b81523060048201526001600160a01b03909116906370a0823190602401602060405180830381865afa15801561021f573d6000803e3d6000fd5b505050506040513d601f19601f8201168201806040525081019061024391906105d2565b60005460405163a9059cbb60e01b81526001600160a01b0385811660048301526024820184905292935091169063a9059cbb906044016020604051808303816000875af1158015610298573d6000803e3d6000fd5b505050506040513d601f19601f820116820180604052508101906102bc91906105eb565b505050565b6102c96104ff565b6000546040516323b872dd60e01b8152336004820152306024820152678ac7230489e8000060448201526001600160a01b03909116906323b872dd906064016020604051808303816000875af1158015610327573d6000803e3d6000fd5b505050506040513d601f19601f8201168201806040525081019061034b91906105eb565b50565b690a968163f0a57b4000008110156103b25760405162461bcd60e51b815260206004820152602160248201527f6d7573742073746172742077697468206174206c65617374203130204d4f58496044820152604560f81b60648201526084016101ac565b6001541580156103cb57506002546001600160a01b0316155b61040e5760405162461bcd60e51b815260206004820152601460248201527319d85b5948185b1c9958591e481cdd185c9d195960621b60448201526064016101ac565b6000546040516323b872dd60e01b8152336004820152306024820152604481018390526001600160a01b03909116906323b872dd906064016020604051808303816000875af1158015610465573d6000803e3d6000fd5b505050506040513d601f19601f8201168201806040525081019061048991906105eb565b5061034b61055c565b600042620151806001546104a6919061062a565b1115905090565b60006001819055600280546001600160a01b031916905560048190556040514281527fdae072d96ce4f8bfc6557d4e8c29e0d1875b50c4efe52b340ab49669ec42ebe6906020015b60405180910390a2565b42600155600280546001600160a01b031916331790556004805490600061052583610643565b909155505060405142815233907f4e9a32e9fc0555b54b05fdc49a6445758f55253293a34185a87b1fdfdd3cef61906020016104f5565b42600155600280546001600160a01b031916331790556003805490600061058283610643565b909155505060405142815233907fea32a03505fd9f04d664676d72295a86c5fb0465e69654751907ca305bc1d1c7906020016104f5565b6000602082840312156105cb57600080fd5b5035919050565b6000602082840312156105e457600080fd5b5051919050565b6000602082840312156105fd57600080fd5b8151801515811461060d57600080fd5b9392505050565b634e487b7160e01b600052601160045260246000fd5b8082018082111561063d5761063d610614565b92915050565b60006001820161065557610655610614565b506001019056fea2646970667358221220338a5974573532f414a3a71a78c172a7ad21fa9c8b9a09719652e4308df73d5864736f6c63430008140033000000000000000000000000f2ea7036d24bf9fdd073870ea757667270072d4f",
        "nonce": "0xd2",
        "chainId": "0xaa36a7"
      },
      "additionalContracts": [],
      "isFixedGasLimit": false
    },
    {
      "hash": "0x84501e28948b893defa91085c0311f053f88adfc16cfb45d3be5453804b9b6c2",
      "transactionType": "CALL",
      "contractName": "MockMoxie",
      "contractAddress": "0xf2ea7036d24bf9fdd073870ea757667270072d4f",
      "function": "approve(address,uint256)",
      "arguments": [
        "0x7142b4A549dF92F8E035FE51f83E64bE9365d268",
        "100000000000000000000000"
      ],
      "transaction": {
        "from": "0x3d4bdd0daa396fa0b8b488fa7faf9050cb944239",
        "to": "0xf2ea7036d24bf9fdd073870ea757667270072d4f",
        "gas": "0x1090c",
        "value": "0x0",
        "input": "0x095ea7b30000000000000000000000007142b4a549df92f8e035fe51f83e64be9365d26800000000000000000000000000000000000000000000152d02c7e14af6800000",
        "nonce": "0xd3",
        "chainId": "0xaa36a7"
      },
      "additionalContracts": [],
      "isFixedGasLimit": false
    },
    {
      "hash": "0x83bf4dece14efec8a00d30933f1b17e01437b1d5ec49a0e9b1bd85ef111f4282",
      "transactionType": "CALL",
      "contractName": "YoinkChing",
      "contractAddress": "0x7142b4a549df92f8e035fe51f83e64be9365d268",
      "function": "startGame(uint256)",
      "arguments": [
        "100000000000000000000000"
      ],
      "transaction": {
        "from": "0x3d4bdd0daa396fa0b8b488fa7faf9050cb944239",
        "to": "0x7142b4a549df92f8e035fe51f83e64be9365d268",
        "gas": "0x2cd82",
        "value": "0x0",
        "input": "0xe5ed1d5900000000000000000000000000000000000000000000152d02c7e14af6800000",
        "nonce": "0xd4",
        "chainId": "0xaa36a7"
      },
      "additionalContracts": [],
      "isFixedGasLimit": false
    }
  ],
  "receipts": [
    {
      "status": "0x1",
      "cumulativeGasUsed": "0x8816dd",
      "logs": [],
      "logsBloom": "0x00000000000000000000000000000000000000000000000000000000000000000000000000000000000000000000000000000000000000000000000000000000000000000000000000000000000000000000000000000000000000000000000000000000000000000000000000000000000000000000000000000000000000000000000000000000000000000000000000000000000000000000000000000000000000000000000000000000000000000000000000000000000000000000000000000000000000000000000000000000000000000000000000000000000000000000000000000000000000000000000000000000000000000000000000000000",
      "type": "0x2",
      "transactionHash": "0xa245d90c3da99bd885fc5baf26736caab97f3ba2a6bb1d0d72aebf2fb6810dfe",
      "transactionIndex": "0x35",
      "blockHash": "0x94d86f917eb1321dc588a5d11f239c1dbc6a7fe37ab184c1158a96b91509dd7c",
      "blockNumber": "0x6700ab",
      "gasUsed": "0x80968",
      "effectiveGasPrice": "0x5ae1f482a",
      "from": "0x3d4bdd0daa396fa0b8b488fa7faf9050cb944239",
      "to": null,
      "contractAddress": "0xf2ea7036d24bf9fdd073870ea757667270072d4f"
    },
    {
      "status": "0x1",
      "cumulativeGasUsed": "0x89222e",
      "logs": [
        {
          "address": "0xf2ea7036d24bf9fdd073870ea757667270072d4f",
          "topics": [
            "0xddf252ad1be2c89b69c2b068fc378daa952ba7f163c4a11628f55a4df523b3ef",
            "0x0000000000000000000000000000000000000000000000000000000000000000",
            "0x0000000000000000000000003d4bdd0daa396fa0b8b488fa7faf9050cb944239"
          ],
          "data": "0x00000000000000000000000000000000000000000000d3c21bcecceda1000000",
          "blockHash": "0x94d86f917eb1321dc588a5d11f239c1dbc6a7fe37ab184c1158a96b91509dd7c",
          "blockNumber": "0x6700ab",
          "transactionHash": "0xfe8299355889e9d36548bb534ebeb26960342a9b495001686aa1ea977ba6b03a",
          "transactionIndex": "0x36",
          "logIndex": "0x52",
          "removed": false
        }
      ],
      "logsBloom": "0x00000800000000000000000000000000000000000000000000000000000000000002000000000000000000000000000000000000000000000000000000000000000000000000000000000008000000000000000000000000000000000000000000000000020000000000000000080800000000000000000000000010000000000000000000000000000000000000000000000000000000000000000000000400000000000000000000000000000000000000000000000000000000000400000000000002000000000000000000000000000000000000000000000000000020000000000000000000000000000000000000000000040000000000000000000000",
      "type": "0x2",
      "transactionHash": "0xfe8299355889e9d36548bb534ebeb26960342a9b495001686aa1ea977ba6b03a",
      "transactionIndex": "0x36",
      "blockHash": "0x94d86f917eb1321dc588a5d11f239c1dbc6a7fe37ab184c1158a96b91509dd7c",
      "blockNumber": "0x6700ab",
      "gasUsed": "0x10b51",
      "effectiveGasPrice": "0x5ae1f482a",
      "from": "0x3d4bdd0daa396fa0b8b488fa7faf9050cb944239",
      "to": "0xf2ea7036d24bf9fdd073870ea757667270072d4f",
      "contractAddress": null
    },
    {
      "status": "0x1",
      "cumulativeGasUsed": "0x89eab3",
      "logs": [
        {
          "address": "0xf2ea7036d24bf9fdd073870ea757667270072d4f",
          "topics": [
            "0xddf252ad1be2c89b69c2b068fc378daa952ba7f163c4a11628f55a4df523b3ef",
            "0x0000000000000000000000000000000000000000000000000000000000000000",
            "0x00000000000000000000000029f0cbed796f0c6663f1ca3f0e3c51de29c78ec8"
          ],
          "data": "0x00000000000000000000000000000000000000000000d3c21bcecceda1000000",
          "blockHash": "0x94d86f917eb1321dc588a5d11f239c1dbc6a7fe37ab184c1158a96b91509dd7c",
          "blockNumber": "0x6700ab",
          "transactionHash": "0xe079644054230179557cba8527e04e58830de41fc9695cdbba2ab6e0d89e5444",
          "transactionIndex": "0x37",
          "logIndex": "0x53",
          "removed": false
        }
      ],
      "logsBloom": "0x00000100000000000000000000000000000000000000000000000000000000000002000000000000000000000000000000000000000000000000000000000800000000000000000000000008000000000000000000000000000000000000000000000000020000000000000000000800000000000000000000000010000000000000000000000000000000000000000000000000000000000000000000000400000000000000000000000000008000000000000000000000000000000000000000000002000000000000000000000000000000000000000000000000000020000000000000000000000000000000000000000000040000000000000000000000",
      "type": "0x2",
      "transactionHash": "0xe079644054230179557cba8527e04e58830de41fc9695cdbba2ab6e0d89e5444",
      "transactionIndex": "0x37",
      "blockHash": "0x94d86f917eb1321dc588a5d11f239c1dbc6a7fe37ab184c1158a96b91509dd7c",
      "blockNumber": "0x6700ab",
      "gasUsed": "0xc885",
      "effectiveGasPrice": "0x5ae1f482a",
      "from": "0x3d4bdd0daa396fa0b8b488fa7faf9050cb944239",
      "to": "0xf2ea7036d24bf9fdd073870ea757667270072d4f",
      "contractAddress": null
    },
    {
      "status": "0x1",
      "cumulativeGasUsed": "0x90aa77",
      "logs": [],
      "logsBloom": "0x00000000000000000000000000000000000000000000000000000000000000000000000000000000000000000000000000000000000000000000000000000000000000000000000000000000000000000000000000000000000000000000000000000000000000000000000000000000000000000000000000000000000000000000000000000000000000000000000000000000000000000000000000000000000000000000000000000000000000000000000000000000000000000000000000000000000000000000000000000000000000000000000000000000000000000000000000000000000000000000000000000000000000000000000000000000",
      "type": "0x2",
      "transactionHash": "0x322704f7cfa3d040ddc41934b2785393703524c495b355d1caf48cc734e83989",
      "transactionIndex": "0x38",
      "blockHash": "0x94d86f917eb1321dc588a5d11f239c1dbc6a7fe37ab184c1158a96b91509dd7c",
      "blockNumber": "0x6700ab",
      "gasUsed": "0x6bfc4",
      "effectiveGasPrice": "0x5ae1f482a",
      "from": "0x3d4bdd0daa396fa0b8b488fa7faf9050cb944239",
      "to": null,
      "contractAddress": "0x7142b4a549df92f8e035fe51f83e64be9365d268"
    },
    {
      "status": "0x1",
      "cumulativeGasUsed": "0x915fb2",
      "logs": [
        {
          "address": "0xf2ea7036d24bf9fdd073870ea757667270072d4f",
          "topics": [
            "0x8c5be1e5ebec7d5bd14f71427d1e84f3dd0314c0f7b2291e5b200ac8c7c3b925",
            "0x0000000000000000000000003d4bdd0daa396fa0b8b488fa7faf9050cb944239",
            "0x0000000000000000000000007142b4a549df92f8e035fe51f83e64be9365d268"
          ],
          "data": "0x00000000000000000000000000000000000000000000152d02c7e14af6800000",
          "blockHash": "0x94d86f917eb1321dc588a5d11f239c1dbc6a7fe37ab184c1158a96b91509dd7c",
          "blockNumber": "0x6700ab",
          "transactionHash": "0x84501e28948b893defa91085c0311f053f88adfc16cfb45d3be5453804b9b6c2",
          "transactionIndex": "0x39",
          "logIndex": "0x54",
          "removed": false
        }
      ],
      "logsBloom": "0x00000800000000000000000000000000000000000000000000000000000000000002000000000000000000000000000000000000000000000000000000200010000000000000000000000000000000000000000000000000000000000000000000000000000000000000000000080008000000000000000000000000000000000000000000000000000000000000000000000000000000000000000000000400020000000000000000000000000000000000000000000000000000000400000000000000000000000000000000000000000000000000000000100000000000000010000000000000000000000000000000000000040000000000000000000000",
      "type": "0x2",
      "transactionHash": "0x84501e28948b893defa91085c0311f053f88adfc16cfb45d3be5453804b9b6c2",
      "transactionIndex": "0x39",
      "blockHash": "0x94d86f917eb1321dc588a5d11f239c1dbc6a7fe37ab184c1158a96b91509dd7c",
      "blockNumber": "0x6700ab",
      "gasUsed": "0xb53b",
      "effectiveGasPrice": "0x5ae1f482a",
      "from": "0x3d4bdd0daa396fa0b8b488fa7faf9050cb944239",
      "to": "0xf2ea7036d24bf9fdd073870ea757667270072d4f",
      "contractAddress": null
    },
    {
      "status": "0x1",
      "cumulativeGasUsed": "0x934a4d",
      "logs": [
        {
          "address": "0xf2ea7036d24bf9fdd073870ea757667270072d4f",
          "topics": [
            "0xddf252ad1be2c89b69c2b068fc378daa952ba7f163c4a11628f55a4df523b3ef",
            "0x0000000000000000000000003d4bdd0daa396fa0b8b488fa7faf9050cb944239",
            "0x0000000000000000000000007142b4a549df92f8e035fe51f83e64be9365d268"
          ],
          "data": "0x00000000000000000000000000000000000000000000152d02c7e14af6800000",
          "blockHash": "0x94d86f917eb1321dc588a5d11f239c1dbc6a7fe37ab184c1158a96b91509dd7c",
          "blockNumber": "0x6700ab",
          "transactionHash": "0x83bf4dece14efec8a00d30933f1b17e01437b1d5ec49a0e9b1bd85ef111f4282",
          "transactionIndex": "0x3a",
          "logIndex": "0x55",
          "removed": false
        },
        {
          "address": "0x7142b4a549df92f8e035fe51f83e64be9365d268",
          "topics": [
            "0xea32a03505fd9f04d664676d72295a86c5fb0465e69654751907ca305bc1d1c7",
            "0x0000000000000000000000003d4bdd0daa396fa0b8b488fa7faf9050cb944239"
          ],
          "data": "0x0000000000000000000000000000000000000000000000000000000066f28a88",
          "blockHash": "0x94d86f917eb1321dc588a5d11f239c1dbc6a7fe37ab184c1158a96b91509dd7c",
          "blockNumber": "0x6700ab",
          "transactionHash": "0x83bf4dece14efec8a00d30933f1b17e01437b1d5ec49a0e9b1bd85ef111f4282",
          "transactionIndex": "0x3a",
          "logIndex": "0x56",
          "removed": false
        }
      ],
      "logsBloom": "0x00000800000000000000000000000000000004000000000000000000000000000002000000000000000000000000000000000000000000000000000000000010000000001000000000000008000000000000000000000000000000000000000000000000000000000000000010080008000000000000000000000010000000000000000000000000000000000000000000000000000000000000000000000400000000000000000000000000000000000000000000000000000000000400000000000002000000000000000000000000000000000000000000100010000000000004000040000000000000000000000000000000040000000000000000000000",
      "type": "0x2",
      "transactionHash": "0x83bf4dece14efec8a00d30933f1b17e01437b1d5ec49a0e9b1bd85ef111f4282",
      "transactionIndex": "0x3a",
      "blockHash": "0x94d86f917eb1321dc588a5d11f239c1dbc6a7fe37ab184c1158a96b91509dd7c",
      "blockNumber": "0x6700ab",
      "gasUsed": "0x1ea9b",
      "effectiveGasPrice": "0x5ae1f482a",
      "from": "0x3d4bdd0daa396fa0b8b488fa7faf9050cb944239",
      "to": "0x7142b4a549df92f8e035fe51f83e64be9365d268",
      "contractAddress": null
    }
  ],
  "libraries": [],
  "pending": [],
  "returns": {},
  "timestamp": 1727171211,
  "chain": 11155111,
  "commit": "35629a4"
}