{
  "transactions": [
    {
      "hash": "0xe0338e4e45579dbd8ba366539ce0e7a8dbd1f628078668c41bfb3dedc6cdc01a",
      "transactionType": "CREATE",
      "contractName": "YoinkChing",
      "contractAddress": "0x970df57d3a86553b9fd1428a2ecbf57bdc30d45b",
      "function": null,
      "arguments": [
        "0x8C9037D1Ef5c6D1f6816278C7AAF5491d24CD527"
      ],
      "transaction": {
        "from": "0x70e1b787a5d677a5906acccf0b4f387b8bb1b5c3",
        "gas": "0x8c7ab",
        "value": "0x0",
        "input": "0x608060405234801561001057600080fd5b5060405161078138038061078183398101604081905261002f916100ae565b6001600160a01b0381166100895760405162461bcd60e51b815260206004820152601560248201527f696e76616c6964206d6f78696520616464726573730000000000000000000000604482015260640160405180910390fd5b600080546001600160a01b0319166001600160a01b03929092169190911790556100de565b6000602082840312156100c057600080fd5b81516001600160a01b03811681146100d757600080fd5b9392505050565b610694806100ed6000396000f3fe608060405234801561001057600080fd5b506004361061009e5760003560e01c80638b7f511f116100665780638b7f511f1461010f5780639846cd9e1461011e5780639bd3c61314610128578063e48c62ac14610132578063e5ed1d591461014257600080fd5b8063208cac4f146100a35780633258f228146100d35780634c8ab371146100e65780635fbd9228146100fd5780636c39b7ee14610106575b600080fd5b6002546100b6906001600160a01b031681565b6040516001600160a01b0390911681526020015b60405180910390f35b6000546100b6906001600160a01b031681565b6100ef60045481565b6040519081526020016100ca565b6100ef60015481565b6100ef60035481565b6100ef678ac7230489e8000081565b610126610155565b005b6100ef6201518081565b6100ef683635c9adc5dea0000081565b6101266101503660046105bb565b61034d565b6001541580159061017057506002546001600160a01b031615155b6101b45760405162461bcd60e51b815260206004820152601060248201526f19d85b59481b9bdd081cdd185c9d195960821b60448201526064015b60405180910390fd5b6101bc610494565b156102c0576002546001600160a01b03166101d56104af565b600080546040516370a0823160e01b81523060048201526001600160a01b03909116906370a0823190602401602060405180830381865afa15801561021e573d6000803e3d6000fd5b505050506040513d601f19601f8201168201806040525081019061024291906105d4565b60005460405163a9059cbb60e01b81526001600160a01b0385811660048301526024820184905292935091169063a9059cbb906044016020604051808303816000875af1158015610297573d6000803e3d6000fd5b505050506040513d601f19601f820116820180604052508101906102bb91906105ed565b505050565b6102c8610501565b6000546040516323b872dd60e01b8152336004820152306024820152678ac7230489e8000060448201526001600160a01b03909116906323b872dd906064016020604051808303816000875af1158015610326573d6000803e3d6000fd5b505050506040513d601f19601f8201168201806040525081019061034a91906105ed565b50565b683635c9adc5dea000008110156103b45760405162461bcd60e51b815260206004820152602560248201527f6d7573742073746172742077697468206174206c656173742035302c303030206044820152644d4f58494560d81b60648201526084016101ab565b6001541580156103cd57506002546001600160a01b0316155b6104105760405162461bcd60e51b815260206004820152601460248201527319d85b5948185b1c9958591e481cdd185c9d195960621b60448201526064016101ab565b6000546040516323b872dd60e01b8152336004820152306024820152604481018390526001600160a01b03909116906323b872dd906064016020604051808303816000875af1158015610467573d6000803e3d6000fd5b505050506040513d601f19601f8201168201806040525081019061048b91906105ed565b5061034a61055e565b600042620151806001546104a8919061062c565b1115905090565b60006001819055600280546001600160a01b031916905560048190556040514281527fdae072d96ce4f8bfc6557d4e8c29e0d1875b50c4efe52b340ab49669ec42ebe6906020015b60405180910390a2565b42600155600280546001600160a01b031916331790556004805490600061052783610645565b909155505060405142815233907f4e9a32e9fc0555b54b05fdc49a6445758f55253293a34185a87b1fdfdd3cef61906020016104f7565b42600155600280546001600160a01b031916331790556003805490600061058483610645565b909155505060405142815233907fea32a03505fd9f04d664676d72295a86c5fb0465e69654751907ca305bc1d1c7906020016104f7565b6000602082840312156105cd57600080fd5b5035919050565b6000602082840312156105e657600080fd5b5051919050565b6000602082840312156105ff57600080fd5b8151801515811461060f57600080fd5b9392505050565b634e487b7160e01b600052601160045260246000fd5b8082018082111561063f5761063f610616565b92915050565b60006001820161065757610657610616565b506001019056fea2646970667358221220354036fb49b1acf8b5b28984d8c9b26a6cc5a8a2dc33e91d5633c77498f56fbb64736f6c634300081400330000000000000000000000008c9037d1ef5c6d1f6816278c7aaf5491d24cd527",
        "nonce": "0x41",
        "chainId": "0x2105"
      },
      "additionalContracts": [],
      "isFixedGasLimit": false
    },
    {
      "hash": "0xb6673e353bc779f49647e5b11eff2a8d7cf496d158ac8c1b1a60e90cb3386a7c",
      "transactionType": "CALL",
      "contractName": null,
      "contractAddress": "0x8c9037d1ef5c6d1f6816278c7aaf5491d24cd527",
      "function": "approve(address,uint256)",
      "arguments": [
        "0x970df57D3a86553B9fd1428a2eCBf57bdC30D45b",
        "1010000000000000000000"
      ],
      "transaction": {
        "from": "0x70e1b787a5d677a5906acccf0b4f387b8bb1b5c3",
        "to": "0x8c9037d1ef5c6d1f6816278c7aaf5491d24cd527",
        "gas": "0x10c6e",
        "value": "0x0",
        "input": "0x095ea7b3000000000000000000000000970df57d3a86553b9fd1428a2ecbf57bdc30d45b000000000000000000000000000000000000000000000036c090d0ca68880000",
        "nonce": "0x42",
        "chainId": "0x2105"
      },
      "additionalContracts": [],
      "isFixedGasLimit": false
    },
    {
      "hash": "0x13aa7b73f046ec230aca9d899b9c06b1f249cdf8aff1587145156f92119c6708",
      "transactionType": "CALL",
      "contractName": "YoinkChing",
      "contractAddress": "0x970df57d3a86553b9fd1428a2ecbf57bdc30d45b",
      "function": "startGame(uint256)",
      "arguments": [
        "1000000000000000000000"
      ],
      "transaction": {
        "from": "0x70e1b787a5d677a5906acccf0b4f387b8bb1b5c3",
        "to": "0x970df57d3a86553b9fd1428a2ecbf57bdc30d45b",
        "gas": "0x2c3ea",
        "value": "0x0",
        "input": "0xe5ed1d5900000000000000000000000000000000000000000000003635c9adc5dea00000",
        "nonce": "0x43",
        "chainId": "0x2105"
      },
      "additionalContracts": [],
      "isFixedGasLimit": false
    }
  ],
  "receipts": [
    {
      "status": "0x1",
      "cumulativeGasUsed": "0xd7e9fa",
      "logs": [],
      "logsBloom": "0x00000000000000000000000000000000000000000000000000000000000000000000000000000000000000000000000000000000000000000000000000000000000000000000000000000000000000000000000000000000000000000000000000000000000000000000000000000000000000000000000000000000000000000000000000000000000000000000000000000000000000000000000000000000000000000000000000000000000000000000000000000000000000000000000000000000000000000000000000000000000000000000000000000000000000000000000000000000000000000000000000000000000000000000000000000000",
      "type": "0x2",
      "transactionHash": "0xe0338e4e45579dbd8ba366539ce0e7a8dbd1f628078668c41bfb3dedc6cdc01a",
      "transactionIndex": "0x60",
      "blockHash": "0x5dc328b948cd201a6db6e62049df8e1b1b46590f6fcc53a3250a01c3075bf54d",
      "blockNumber": "0x1349fb8",
      "gasUsed": "0x6c176",
      "effectiveGasPrice": "0x5e9471",
      "from": "0x70e1b787a5d677a5906acccf0b4f387b8bb1b5c3",
      "to": null,
      "contractAddress": "0x970df57d3a86553b9fd1428a2ecbf57bdc30d45b",
      "l1BaseFeeScalar": "0x8dd",
      "l1BlobBaseFee": "0x1",
      "l1BlobBaseFeeScalar": "0x101c12",
      "l1Fee": "0x6836a02c9a",
      "l1GasPrice": "0x2713a74ca",
      "l1GasUsed": "0x4975"
    },
    {
      "status": "0x1",
      "cumulativeGasUsed": "0xd8a185",
      "logs": [
        {
          "address": "0x8c9037d1ef5c6d1f6816278c7aaf5491d24cd527",
          "topics": [
            "0x8c5be1e5ebec7d5bd14f71427d1e84f3dd0314c0f7b2291e5b200ac8c7c3b925",
            "0x00000000000000000000000070e1b787a5d677a5906acccf0b4f387b8bb1b5c3",
            "0x000000000000000000000000970df57d3a86553b9fd1428a2ecbf57bdc30d45b"
          ],
          "data": "0x000000000000000000000000000000000000000000000036c090d0ca68880000",
          "blockHash": "0x5dc328b948cd201a6db6e62049df8e1b1b46590f6fcc53a3250a01c3075bf54d",
          "blockNumber": "0x1349fb8",
          "transactionHash": "0xb6673e353bc779f49647e5b11eff2a8d7cf496d158ac8c1b1a60e90cb3386a7c",
          "transactionIndex": "0x61",
          "logIndex": "0x104",
          "removed": false
        }
      ],
      "logsBloom": "0x00000000000000000000000000000000000000000000000000000000000000000000000000000000000000000000000000000010000000000000000040200000000000000000000000000000000000000000000000000004000000000000000000000000000000000000000000000000000000000000000000000000000000000000000000000000000000000000000000000000000001000000000000000000120020000000000000000000000000000000000000000000000020000000000000000000000000000000000000000000000000000000000000000000000000000010000000080000000000000000000000000000000000000001000000000000",
      "type": "0x2",
      "transactionHash": "0xb6673e353bc779f49647e5b11eff2a8d7cf496d158ac8c1b1a60e90cb3386a7c",
      "transactionIndex": "0x61",
      "blockHash": "0x5dc328b948cd201a6db6e62049df8e1b1b46590f6fcc53a3250a01c3075bf54d",
      "blockNumber": "0x1349fb8",
      "gasUsed": "0xb78b",
      "effectiveGasPrice": "0x5e9471",
      "from": "0x70e1b787a5d677a5906acccf0b4f387b8bb1b5c3",
      "to": "0x8c9037d1ef5c6d1f6816278c7aaf5491d24cd527",
      "contractAddress": null,
      "l1BaseFeeScalar": "0x8dd",
      "l1BlobBaseFee": "0x1",
      "l1BlobBaseFeeScalar": "0x101c12",
      "l1Fee": "0x8ddd43895",
      "l1GasPrice": "0x2713a74ca",
      "l1GasUsed": "0x640"
    },
    {
      "status": "0x1",
      "cumulativeGasUsed": "0xdaa20a",
      "logs": [
        {
          "address": "0x8c9037d1ef5c6d1f6816278c7aaf5491d24cd527",
          "topics": [
            "0xddf252ad1be2c89b69c2b068fc378daa952ba7f163c4a11628f55a4df523b3ef",
            "0x00000000000000000000000070e1b787a5d677a5906acccf0b4f387b8bb1b5c3",
            "0x000000000000000000000000970df57d3a86553b9fd1428a2ecbf57bdc30d45b"
          ],
          "data": "0x00000000000000000000000000000000000000000000003635c9adc5dea00000",
          "blockHash": "0x5dc328b948cd201a6db6e62049df8e1b1b46590f6fcc53a3250a01c3075bf54d",
          "blockNumber": "0x1349fb8",
          "transactionHash": "0x13aa7b73f046ec230aca9d899b9c06b1f249cdf8aff1587145156f92119c6708",
          "transactionIndex": "0x62",
          "logIndex": "0x105",
          "removed": false
        },
        {
          "address": "0x970df57d3a86553b9fd1428a2ecbf57bdc30d45b",
          "topics": [
            "0xea32a03505fd9f04d664676d72295a86c5fb0465e69654751907ca305bc1d1c7",
            "0x00000000000000000000000070e1b787a5d677a5906acccf0b4f387b8bb1b5c3"
          ],
          "data": "0x0000000000000000000000000000000000000000000000000000000066f39c53",
          "blockHash": "0x5dc328b948cd201a6db6e62049df8e1b1b46590f6fcc53a3250a01c3075bf54d",
          "blockNumber": "0x1349fb8",
          "transactionHash": "0x13aa7b73f046ec230aca9d899b9c06b1f249cdf8aff1587145156f92119c6708",
          "transactionIndex": "0x62",
          "logIndex": "0x106",
          "removed": false
        }
      ],
      "logsBloom": "0x00000000000000000000000000000000000004000000000000000000000000000000000000000000000000000000000000000010000000000000000040000000000000000000000000400008000000000000000000000004000000000000000000000000000002000000000000000000000000000000000000000010000000000000000000000000000000000000000000000000000001000000000000000000100020000000000000000000400000000000000000000000000020000000000000000002000000000000000000000000000000000000000000000000000000000004000040080000000000000000000000000000000000000001000000000000",
      "type": "0x2",
      "transactionHash": "0x13aa7b73f046ec230aca9d899b9c06b1f249cdf8aff1587145156f92119c6708",
      "transactionIndex": "0x62",
      "blockHash": "0x5dc328b948cd201a6db6e62049df8e1b1b46590f6fcc53a3250a01c3075bf54d",
      "blockNumber": "0x1349fb8",
      "gasUsed": "0x20085",
      "effectiveGasPrice": "0x5e9471",
      "from": "0x70e1b787a5d677a5906acccf0b4f387b8bb1b5c3",
      "to": "0x970df57d3a86553b9fd1428a2ecbf57bdc30d45b",
      "contractAddress": null,
      "l1BaseFeeScalar": "0x8dd",
      "l1BlobBaseFee": "0x1",
      "l1BlobBaseFeeScalar": "0x101c12",
      "l1Fee": "0x8ddd43895",
      "l1GasPrice": "0x2713a74ca",
      "l1GasUsed": "0x640"
    }
  ],
  "libraries": [],
  "pending": [],
  "returns": {},
  "timestamp": 1727241321,
  "chain": 8453,
  "commit": "7e2cada"
}