{
  "transactions": [
    {
      "hash": "0xb285585c984d7614d7bd93ac1ff3f8d7ba840619d9a1eb4d3aa28ae9bd5d8fe7",
      "transactionType": "CALL",
      "contractName": null,
      "contractAddress": "0x44718aafb9245d6374bd9f939d8dcaf564bb14b6",
      "function": "transfer(address,uint256)",
      "arguments": [
        "0x29F0cbED796f0C6663f1ca3F0e3c51De29c78Ec8",
        "100000000000000000000000"
      ],
      "transaction": {
        "from": "0x3d4bdd0daa396fa0b8b488fa7faf9050cb944239",
        "to": "0x44718aafb9245d6374bd9f939d8dcaf564bb14b6",
        "gas": "0x116a4",
        "value": "0x0",
        "input": "0xa9059cbb00000000000000000000000029f0cbed796f0c6663f1ca3f0e3c51de29c78ec800000000000000000000000000000000000000000000152d02c7e14af6800000",
        "nonce": "0xbf",
        "chainId": "0xaa36a7"
      },
      "additionalContracts": [],
      "isFixedGasLimit": false
    },
    {
      "hash": "0x1d1eeaa8036c50694539ea9707b70530d52ba89f8be91c9d636a9973bc2edba2",
      "transactionType": "CALL",
      "contractName": null,
      "contractAddress": "0x29f0cbed796f0c6663f1ca3f0e3c51de29c78ec8",
      "function": null,
      "arguments": null,
      "transaction": {
        "from": "0x3d4bdd0daa396fa0b8b488fa7faf9050cb944239",
        "to": "0x29f0cbed796f0c6663f1ca3f0e3c51de29c78ec8",
        "gas": "0x714d",
        "value": "0x2386f26fc10000",
        "input": "0x",
        "nonce": "0xc0",
        "chainId": "0xaa36a7"
      },
      "additionalContracts": [],
      "isFixedGasLimit": false
    }
  ],
  "receipts": [
    {
      "status": "0x1",
      "cumulativeGasUsed": "0xb95c72",
      "logs": [
        {
          "address": "0x44718aafb9245d6374bd9f939d8dcaf564bb14b6",
          "topics": [
            "0xddf252ad1be2c89b69c2b068fc378daa952ba7f163c4a11628f55a4df523b3ef",
            "0x0000000000000000000000003d4bdd0daa396fa0b8b488fa7faf9050cb944239",
            "0x00000000000000000000000029f0cbed796f0c6663f1ca3f0e3c51de29c78ec8"
          ],
          "data": "0x00000000000000000000000000000000000000000000152d02c7e14af6800000",
          "blockHash": "0x3128deb4a4b6523977530391c972af998489ae6f4e06541457838b5f686aa02f",
          "blockNumber": "0x66df84",
          "transactionHash": "0xb285585c984d7614d7bd93ac1ff3f8d7ba840619d9a1eb4d3aa28ae9bd5d8fe7",
          "transactionIndex": "0x41",
          "logIndex": "0x52",
          "removed": false
        }
      ],
      "logsBloom": "0x00000902000000000000000000000000000000000000000000000000000000000000000000000000000000000000000000000000000000000000000000000800000000000004000000000008000000000000000000000000000000000000000000000000000000000000000000080000000000000000000000000010000000000000000000000000000000000080000000000000000000000000000000000000000000000000000000000000008000000000000000000000000000000400000000000002000000000000000000000000000000000000000000000000000000000000000000000000000000000000000000000000000000000000000000000000",
      "type": "0x2",
      "transactionHash": "0xb285585c984d7614d7bd93ac1ff3f8d7ba840619d9a1eb4d3aa28ae9bd5d8fe7",
      "transactionIndex": "0x41",
      "blockHash": "0x3128deb4a4b6523977530391c972af998489ae6f4e06541457838b5f686aa02f",
      "blockNumber": "0x66df84",
      "gasUsed": "0xc9bc",
      "effectiveGasPrice": "0x15ea97545",
      "from": "0x3d4bdd0daa396fa0b8b488fa7faf9050cb944239",
      "to": "0x44718aafb9245d6374bd9f939d8dcaf564bb14b6",
      "contractAddress": null
    },
    {
      "status": "0x1",
      "cumulativeGasUsed": "0xb9ae7a",
      "logs": [],
      "logsBloom": "0x00000000000000000000000000000000000000000000000000000000000000000000000000000000000000000000000000000000000000000000000000000000000000000000000000000000000000000000000000000000000000000000000000000000000000000000000000000000000000000000000000000000000000000000000000000000000000000000000000000000000000000000000000000000000000000000000000000000000000000000000000000000000000000000000000000000000000000000000000000000000000000000000000000000000000000000000000000000000000000000000000000000000000000000000000000000",
      "type": "0x2",
      "transactionHash": "0x1d1eeaa8036c50694539ea9707b70530d52ba89f8be91c9d636a9973bc2edba2",
      "transactionIndex": "0x42",
      "blockHash": "0x3128deb4a4b6523977530391c972af998489ae6f4e06541457838b5f686aa02f",
      "blockNumber": "0x66df84",
      "gasUsed": "0x5208",
      "effectiveGasPrice": "0x15ea97545",
      "from": "0x3d4bdd0daa396fa0b8b488fa7faf9050cb944239",
      "to": "0x29f0cbed796f0c6663f1ca3f0e3c51de29c78ec8",
      "contractAddress": null
    }
  ],
  "libraries": [],
  "pending": [],
  "returns": {},
  "timestamp": 1727048334,
  "chain": 11155111,
  "commit": "fb2af52"
}